{
  "_format": "hh-sol-artifact-1",
  "contractName": "MonkeyNFT",
  "sourceName": "contracts/MonkeyNFT.sol",
  "abi": [
    {
      "inputs": [],
      "stateMutability": "nonpayable",
      "type": "constructor"
    },
    {
      "anonymous": false,
      "inputs": [
        {
          "indexed": true,
          "internalType": "address",
          "name": "owner",
          "type": "address"
        },
        {
          "indexed": true,
          "internalType": "address",
          "name": "approved",
          "type": "address"
        },
        {
          "indexed": true,
          "internalType": "uint256",
          "name": "tokenId",
          "type": "uint256"
        }
      ],
      "name": "Approval",
      "type": "event"
    },
    {
      "anonymous": false,
      "inputs": [
        {
          "indexed": true,
          "internalType": "address",
          "name": "owner",
          "type": "address"
        },
        {
          "indexed": true,
          "internalType": "address",
          "name": "operator",
          "type": "address"
        },
        {
          "indexed": false,
          "internalType": "bool",
          "name": "approved",
          "type": "bool"
        }
      ],
      "name": "ApprovalForAll",
      "type": "event"
    },
    {
      "anonymous": false,
      "inputs": [
        {
          "indexed": true,
          "internalType": "uint256",
          "name": "tokenId",
          "type": "uint256"
        },
        {
          "indexed": true,
          "internalType": "uint256",
          "name": "listPrice",
          "type": "uint256"
        }
      ],
      "name": "Listed",
      "type": "event"
    },
    {
      "anonymous": false,
      "inputs": [
        {
          "indexed": true,
          "internalType": "address",
          "name": "buyer",
          "type": "address"
        },
        {
          "indexed": false,
          "internalType": "uint256",
          "name": "tokenId",
          "type": "uint256"
        }
      ],
      "name": "MintedNFT",
      "type": "event"
    },
    {
      "anonymous": false,
      "inputs": [
        {
          "indexed": true,
          "internalType": "address",
          "name": "previousOwner",
          "type": "address"
        },
        {
          "indexed": true,
          "internalType": "address",
          "name": "newOwner",
          "type": "address"
        }
      ],
      "name": "OwnershipTransferred",
      "type": "event"
    },
    {
      "anonymous": false,
      "inputs": [
        {
          "indexed": false,
          "internalType": "address",
          "name": "account",
          "type": "address"
        }
      ],
      "name": "Paused",
      "type": "event"
    },
    {
      "anonymous": false,
      "inputs": [
        {
          "indexed": true,
          "internalType": "uint256",
          "name": "tokenId",
          "type": "uint256"
        },
        {
          "indexed": true,
          "internalType": "address",
          "name": "seller",
          "type": "address"
        }
      ],
      "name": "Sold",
      "type": "event"
    },
    {
      "anonymous": false,
      "inputs": [
        {
          "indexed": true,
          "internalType": "address",
          "name": "from",
          "type": "address"
        },
        {
          "indexed": true,
          "internalType": "address",
          "name": "to",
          "type": "address"
        },
        {
          "indexed": true,
          "internalType": "uint256",
          "name": "tokenId",
          "type": "uint256"
        }
      ],
      "name": "Transfer",
      "type": "event"
    },
    {
      "anonymous": false,
      "inputs": [
        {
          "indexed": false,
          "internalType": "address",
          "name": "account",
          "type": "address"
        }
      ],
      "name": "Unpaused",
      "type": "event"
    },
    {
      "anonymous": false,
      "inputs": [
        {
          "indexed": true,
          "internalType": "address",
          "name": "to",
          "type": "address"
        },
        {
          "indexed": false,
          "internalType": "uint256",
          "name": "amount",
          "type": "uint256"
        }
      ],
      "name": "Withdraw",
      "type": "event"
    },
    {
      "inputs": [],
      "name": "LIST_PRICE",
      "outputs": [
        {
          "internalType": "uint256",
          "name": "",
          "type": "uint256"
        }
      ],
      "stateMutability": "view",
      "type": "function"
    },
    {
      "inputs": [],
      "name": "MAX_SUPPLY",
      "outputs": [
        {
          "internalType": "uint256",
          "name": "",
          "type": "uint256"
        }
      ],
      "stateMutability": "view",
      "type": "function"
    },
    {
      "inputs": [],
      "name": "MAX_WHITELIST_ADDRESS",
      "outputs": [
        {
          "internalType": "uint256",
          "name": "",
          "type": "uint256"
        }
      ],
      "stateMutability": "view",
      "type": "function"
    },
    {
      "inputs": [],
      "name": "PUBLIC_MINT_PRICE",
      "outputs": [
        {
          "internalType": "uint256",
          "name": "",
          "type": "uint256"
        }
      ],
      "stateMutability": "view",
      "type": "function"
    },
    {
      "inputs": [],
      "name": "TOTAL_WHITELIST_ADDRESS",
      "outputs": [
        {
          "internalType": "uint256",
          "name": "",
          "type": "uint256"
        }
      ],
      "stateMutability": "view",
      "type": "function"
    },
    {
      "inputs": [],
      "name": "WHITELIST_MINT_PRICE",
      "outputs": [
        {
          "internalType": "uint256",
          "name": "",
          "type": "uint256"
        }
      ],
      "stateMutability": "view",
      "type": "function"
    },
    {
      "inputs": [
        {
          "internalType": "uint256",
          "name": "",
          "type": "uint256"
        }
      ],
      "name": "allListedNFTs",
      "outputs": [
        {
          "internalType": "uint256",
          "name": "tokenId",
          "type": "uint256"
        },
        {
          "internalType": "uint256",
          "name": "listPrice",
          "type": "uint256"
        },
        {
          "internalType": "address payable",
          "name": "seller",
          "type": "address"
        },
        {
          "internalType": "address payable",
          "name": "owner",
          "type": "address"
        },
        {
          "internalType": "bool",
          "name": "isListed",
          "type": "bool"
        }
      ],
      "stateMutability": "view",
      "type": "function"
    },
    {
      "inputs": [
        {
          "internalType": "address",
          "name": "to",
          "type": "address"
        },
        {
          "internalType": "uint256",
          "name": "tokenId",
          "type": "uint256"
        }
      ],
      "name": "approve",
      "outputs": [],
      "stateMutability": "nonpayable",
      "type": "function"
    },
    {
      "inputs": [
        {
          "internalType": "address",
          "name": "owner",
          "type": "address"
        }
      ],
      "name": "balanceOf",
      "outputs": [
        {
          "internalType": "uint256",
          "name": "",
          "type": "uint256"
        }
      ],
      "stateMutability": "view",
      "type": "function"
    },
    {
      "inputs": [],
      "name": "baseExtension",
      "outputs": [
        {
          "internalType": "string",
          "name": "",
          "type": "string"
        }
      ],
      "stateMutability": "view",
      "type": "function"
    },
    {
      "inputs": [
        {
          "internalType": "uint256",
          "name": "id",
          "type": "uint256"
        }
      ],
      "name": "buyNFT",
      "outputs": [],
      "stateMutability": "payable",
      "type": "function"
    },
    {
      "inputs": [
        {
          "internalType": "uint256",
          "name": "tokenId",
          "type": "uint256"
        }
      ],
      "name": "getApproved",
      "outputs": [
        {
          "internalType": "address",
          "name": "",
          "type": "address"
        }
      ],
      "stateMutability": "view",
      "type": "function"
    },
    {
      "inputs": [],
      "name": "getListedNFTLength",
      "outputs": [
        {
          "internalType": "uint256",
          "name": "",
          "type": "uint256"
        }
      ],
      "stateMutability": "view",
      "type": "function"
    },
    {
      "inputs": [],
      "name": "getMyNFTs",
      "outputs": [
        {
          "components": [
            {
              "internalType": "uint256",
              "name": "tokenId",
              "type": "uint256"
            },
            {
              "internalType": "uint256",
              "name": "listPrice",
              "type": "uint256"
            },
            {
              "internalType": "address payable",
              "name": "seller",
              "type": "address"
            },
            {
              "internalType": "address payable",
              "name": "owner",
              "type": "address"
            },
            {
              "internalType": "bool",
              "name": "isListed",
              "type": "bool"
            }
          ],
          "internalType": "struct MonkeyNFT.NFTdetails[]",
          "name": "",
          "type": "tuple[]"
        }
      ],
      "stateMutability": "view",
      "type": "function"
    },
    {
      "inputs": [],
      "name": "getWhiteList",
      "outputs": [],
      "stateMutability": "nonpayable",
      "type": "function"
    },
    {
      "inputs": [
        {
          "internalType": "address",
          "name": "owner",
          "type": "address"
        },
        {
          "internalType": "address",
          "name": "operator",
          "type": "address"
        }
      ],
      "name": "isApprovedForAll",
      "outputs": [
        {
          "internalType": "bool",
          "name": "",
          "type": "bool"
        }
      ],
      "stateMutability": "view",
      "type": "function"
    },
    {
      "inputs": [
        {
          "internalType": "uint256",
          "name": "tokenId",
          "type": "uint256"
        },
        {
          "internalType": "uint256",
          "name": "_listPrice",
          "type": "uint256"
        }
      ],
      "name": "listNFT",
      "outputs": [],
      "stateMutability": "payable",
      "type": "function"
    },
    {
      "inputs": [
        {
          "internalType": "uint256",
          "name": "",
          "type": "uint256"
        }
      ],
      "name": "mintedNFTs",
      "outputs": [
        {
          "internalType": "uint256",
          "name": "tokenId",
          "type": "uint256"
        },
        {
          "internalType": "uint256",
          "name": "listPrice",
          "type": "uint256"
        },
        {
          "internalType": "address payable",
          "name": "seller",
          "type": "address"
        },
        {
          "internalType": "address payable",
          "name": "owner",
          "type": "address"
        },
        {
          "internalType": "bool",
          "name": "isListed",
          "type": "bool"
        }
      ],
      "stateMutability": "view",
      "type": "function"
    },
    {
      "inputs": [
        {
          "internalType": "address",
          "name": "",
          "type": "address"
        }
      ],
      "name": "mintedWallet",
      "outputs": [
        {
          "internalType": "uint256",
          "name": "",
          "type": "uint256"
        }
      ],
      "stateMutability": "view",
      "type": "function"
    },
    {
      "inputs": [],
      "name": "name",
      "outputs": [
        {
          "internalType": "string",
          "name": "",
          "type": "string"
        }
      ],
      "stateMutability": "view",
      "type": "function"
    },
    {
      "inputs": [],
      "name": "owner",
      "outputs": [
        {
          "internalType": "address",
          "name": "",
          "type": "address"
        }
      ],
      "stateMutability": "view",
      "type": "function"
    },
    {
      "inputs": [
        {
          "internalType": "uint256",
          "name": "tokenId",
          "type": "uint256"
        }
      ],
      "name": "ownerOf",
      "outputs": [
        {
          "internalType": "address",
          "name": "",
          "type": "address"
        }
      ],
      "stateMutability": "view",
      "type": "function"
    },
    {
      "inputs": [],
      "name": "pause",
      "outputs": [],
      "stateMutability": "nonpayable",
      "type": "function"
    },
    {
      "inputs": [],
      "name": "paused",
      "outputs": [
        {
          "internalType": "bool",
          "name": "",
          "type": "bool"
        }
      ],
      "stateMutability": "view",
      "type": "function"
    },
    {
      "inputs": [
        {
          "internalType": "uint256",
          "name": "quantity",
          "type": "uint256"
        }
      ],
      "name": "publicMint",
      "outputs": [],
      "stateMutability": "payable",
      "type": "function"
    },
    {
      "inputs": [],
      "name": "renounceOwnership",
      "outputs": [],
      "stateMutability": "nonpayable",
      "type": "function"
    },
    {
      "inputs": [
        {
          "internalType": "address",
          "name": "from",
          "type": "address"
        },
        {
          "internalType": "address",
          "name": "to",
          "type": "address"
        },
        {
          "internalType": "uint256",
          "name": "tokenId",
          "type": "uint256"
        }
      ],
      "name": "safeTransferFrom",
      "outputs": [],
      "stateMutability": "nonpayable",
      "type": "function"
    },
    {
      "inputs": [
        {
          "internalType": "address",
          "name": "from",
          "type": "address"
        },
        {
          "internalType": "address",
          "name": "to",
          "type": "address"
        },
        {
          "internalType": "uint256",
          "name": "tokenId",
          "type": "uint256"
        },
        {
          "internalType": "bytes",
          "name": "data",
          "type": "bytes"
        }
      ],
      "name": "safeTransferFrom",
      "outputs": [],
      "stateMutability": "nonpayable",
      "type": "function"
    },
    {
      "inputs": [
        {
          "internalType": "address",
          "name": "operator",
          "type": "address"
        },
        {
          "internalType": "bool",
          "name": "approved",
          "type": "bool"
        }
      ],
      "name": "setApprovalForAll",
      "outputs": [],
      "stateMutability": "nonpayable",
      "type": "function"
    },
    {
      "inputs": [
        {
          "internalType": "bytes4",
          "name": "interfaceId",
          "type": "bytes4"
        }
      ],
      "name": "supportsInterface",
      "outputs": [
        {
          "internalType": "bool",
          "name": "",
          "type": "bool"
        }
      ],
      "stateMutability": "view",
      "type": "function"
    },
    {
      "inputs": [],
      "name": "symbol",
      "outputs": [
        {
          "internalType": "string",
          "name": "",
          "type": "string"
        }
      ],
      "stateMutability": "view",
      "type": "function"
    },
    {
      "inputs": [
        {
          "internalType": "uint256",
          "name": "index",
          "type": "uint256"
        }
      ],
      "name": "tokenByIndex",
      "outputs": [
        {
          "internalType": "uint256",
          "name": "",
          "type": "uint256"
        }
      ],
      "stateMutability": "view",
      "type": "function"
    },
    {
      "inputs": [
        {
          "internalType": "address",
          "name": "owner",
          "type": "address"
        },
        {
          "internalType": "uint256",
          "name": "index",
          "type": "uint256"
        }
      ],
      "name": "tokenOfOwnerByIndex",
      "outputs": [
        {
          "internalType": "uint256",
          "name": "",
          "type": "uint256"
        }
      ],
      "stateMutability": "view",
      "type": "function"
    },
    {
      "inputs": [
        {
          "internalType": "uint256",
          "name": "tokenId",
          "type": "uint256"
        }
      ],
      "name": "tokenURI",
      "outputs": [
        {
          "internalType": "string",
          "name": "",
          "type": "string"
        }
      ],
      "stateMutability": "view",
      "type": "function"
    },
    {
      "inputs": [],
      "name": "totalSupply",
      "outputs": [
        {
          "internalType": "uint256",
          "name": "",
          "type": "uint256"
        }
      ],
      "stateMutability": "view",
      "type": "function"
    },
    {
      "inputs": [
        {
          "internalType": "address",
          "name": "from",
          "type": "address"
        },
        {
          "internalType": "address",
          "name": "to",
          "type": "address"
        },
        {
          "internalType": "uint256",
          "name": "tokenId",
          "type": "uint256"
        }
      ],
      "name": "transferFrom",
      "outputs": [],
      "stateMutability": "nonpayable",
      "type": "function"
    },
    {
      "inputs": [
        {
          "internalType": "address",
          "name": "newOwner",
          "type": "address"
        }
      ],
      "name": "transferOwnership",
      "outputs": [],
      "stateMutability": "nonpayable",
      "type": "function"
    },
    {
      "inputs": [],
      "name": "unpause",
      "outputs": [],
      "stateMutability": "nonpayable",
      "type": "function"
    },
    {
      "inputs": [
        {
          "internalType": "uint256",
          "name": "tokenId",
          "type": "uint256"
        },
        {
          "internalType": "uint256",
          "name": "_listPrice",
          "type": "uint256"
        }
      ],
      "name": "updateListPrice",
      "outputs": [],
      "stateMutability": "nonpayable",
      "type": "function"
    },
    {
      "inputs": [
        {
          "internalType": "address",
          "name": "",
          "type": "address"
        }
      ],
      "name": "whiteListAddress",
      "outputs": [
        {
          "internalType": "bool",
          "name": "",
          "type": "bool"
        }
      ],
      "stateMutability": "view",
      "type": "function"
    },
    {
      "inputs": [
        {
          "internalType": "uint256",
          "name": "quantity",
          "type": "uint256"
        }
      ],
      "name": "whiteListMint",
      "outputs": [],
      "stateMutability": "payable",
      "type": "function"
    },
    {
      "inputs": [
        {
          "internalType": "address",
          "name": "to",
          "type": "address"
        }
      ],
      "name": "withdrawFunds",
      "outputs": [],
      "stateMutability": "nonpayable",
      "type": "function"
    }
  ],
  "bytecode": "0x60806040526107d0600d55662386f26fc10000600e5566038d7ea4c68000600f5561012c601055662386f26fc100006011556040518060400160405280600581526020017f2e6a736f6e00000000000000000000000000000000000000000000000000000081525060139081620000779190620004a1565b503480156200008557600080fd5b506040518060400160405280600681526020017f4d6f6e6b657900000000000000000000000000000000000000000000000000008152506040518060400160405280600381526020017f4d4b5900000000000000000000000000000000000000000000000000000000008152508160009081620001039190620004a1565b508060019081620001159190620004a1565b5050506000600b60006101000a81548160ff02191690831515021790555062000153620001476200015960201b60201c565b6200016160201b60201c565b62000588565b600033905090565b6000600b60019054906101000a900473ffffffffffffffffffffffffffffffffffffffff16905081600b60016101000a81548173ffffffffffffffffffffffffffffffffffffffff021916908373ffffffffffffffffffffffffffffffffffffffff1602179055508173ffffffffffffffffffffffffffffffffffffffff168173ffffffffffffffffffffffffffffffffffffffff167f8be0079c531659141344cd1fd0a4f28419497f9722a3daafe3b4186f6b6457e060405160405180910390a35050565b600081519050919050565b7f4e487b7100000000000000000000000000000000000000000000000000000000600052604160045260246000fd5b7f4e487b7100000000000000000000000000000000000000000000000000000000600052602260045260246000fd5b60006002820490506001821680620002a957607f821691505b602082108103620002bf57620002be62000261565b5b50919050565b60008190508160005260206000209050919050565b60006020601f8301049050919050565b600082821b905092915050565b600060088302620003297fffffffffffffffffffffffffffffffffffffffffffffffffffffffffffffffff82620002ea565b620003358683620002ea565b95508019841693508086168417925050509392505050565b6000819050919050565b6000819050919050565b6000620003826200037c62000376846200034d565b62000357565b6200034d565b9050919050565b6000819050919050565b6200039e8362000361565b620003b6620003ad8262000389565b848454620002f7565b825550505050565b600090565b620003cd620003be565b620003da81848462000393565b505050565b5b818110156200040257620003f6600082620003c3565b600181019050620003e0565b5050565b601f82111562000451576200041b81620002c5565b6200042684620002da565b8101602085101562000436578190505b6200044e6200044585620002da565b830182620003df565b50505b505050565b600082821c905092915050565b6000620004766000198460080262000456565b1980831691505092915050565b600062000491838362000463565b9150826002028217905092915050565b620004ac8262000227565b67ffffffffffffffff811115620004c857620004c762000232565b5b620004d4825462000290565b620004e182828562000406565b600060209050601f83116001811462000519576000841562000504578287015190505b62000510858262000483565b86555062000580565b601f1984166200052986620002c5565b60005b8281101562000553578489015182556001820191506020850194506020810190506200052c565b868310156200057357848901516200056f601f89168262000463565b8355505b6001600288020188555050505b505050505050565b61585e80620005986000396000f3fe6080604052600436106102515760003560e01c80636352211e11610139578063a22cb465116100b6578063c87b56dd1161007a578063c87b56dd14610872578063cdfe3f30146108af578063cf52a7b2146108da578063dd53545114610917578063e985e9c514610942578063f2fde38b1461097f57610251565b8063a22cb4651461079f578063aca9938d146107c8578063b2ec653b146107f3578063b88d4fde1461081e578063c66828621461084757610251565b8063717babd2116100fd578063717babd2146106eb5780638456cb59146107165780638da5cb5b1461072d57806394383f141461075857806395d89b411461077457610251565b80636352211e1461060657806368742da6146106435780636bde26271461066c57806370a0823114610697578063715018a6146106d457610251565b8063236bc5f0116101d25780633f4ba83a116101965780633f4ba83a1461051757806342842e0e1461052e5780634f6ccce71461055757806351ed8288146105945780635c975abb146105b0578063629cb2e4146105db57610251565b8063236bc5f01461042d57806323b872dd1461046a5780632db11544146104935780632f745c59146104af57806332cb6b0c146104ec57610251565b806309a9d76c1161021957806309a9d76c14610340578063144dcbbc1461035757806318160ddd146103805780631e1566b2146103ab5780631ee9f1d5146103ec57610251565b806301ffc9a71461025657806302e001ef1461029357806306fdde03146102af578063081812fc146102da578063095ea7b314610317575b600080fd5b34801561026257600080fd5b5061027d60048036038101906102789190613eb9565b6109a8565b60405161028a9190613f01565b60405180910390f35b6102ad60048036038101906102a89190613f52565b6109ba565b005b3480156102bb57600080fd5b506102c4610d97565b6040516102d1919061400f565b60405180910390f35b3480156102e657600080fd5b5061030160048036038101906102fc9190613f52565b610e29565b60405161030e9190614072565b60405180910390f35b34801561032357600080fd5b5061033e600480360381019061033991906140b9565b610e6f565b005b34801561034c57600080fd5b50610355610f86565b005b34801561036357600080fd5b5061037e600480360381019061037991906140f9565b6110cb565b005b34801561038c57600080fd5b506103956111e6565b6040516103a29190614148565b60405180910390f35b3480156103b757600080fd5b506103d260048036038101906103cd9190613f52565b6111f3565b6040516103e3959493929190614184565b60405180910390f35b3480156103f857600080fd5b50610413600480360381019061040e9190613f52565b611286565b604051610424959493929190614184565b60405180910390f35b34801561043957600080fd5b50610454600480360381019061044f91906141d7565b611309565b6040516104619190614148565b60405180910390f35b34801561047657600080fd5b50610491600480360381019061048c9190614204565b611321565b005b6104ad60048036038101906104a89190613f52565b611381565b005b3480156104bb57600080fd5b506104d660048036038101906104d191906140b9565b6116d2565b6040516104e39190614148565b60405180910390f35b3480156104f857600080fd5b50610501611777565b60405161050e9190614148565b60405180910390f35b34801561052357600080fd5b5061052c61177d565b005b34801561053a57600080fd5b5061055560048036038101906105509190614204565b61178f565b005b34801561056357600080fd5b5061057e60048036038101906105799190613f52565b6117af565b60405161058b9190614148565b60405180910390f35b6105ae60048036038101906105a99190613f52565b611820565b005b3480156105bc57600080fd5b506105c5611b92565b6040516105d29190613f01565b60405180910390f35b3480156105e757600080fd5b506105f0611ba9565b6040516105fd919061439b565b60405180910390f35b34801561061257600080fd5b5061062d60048036038101906106289190613f52565b611dad565b60405161063a9190614072565b60405180910390f35b34801561064f57600080fd5b5061066a600480360381019061066591906141d7565b611e33565b005b34801561067857600080fd5b50610681611ed9565b60405161068e9190614148565b60405180910390f35b3480156106a357600080fd5b506106be60048036038101906106b991906141d7565b611edf565b6040516106cb9190614148565b60405180910390f35b3480156106e057600080fd5b506106e9611f96565b005b3480156106f757600080fd5b50610700611faa565b60405161070d9190614148565b60405180910390f35b34801561072257600080fd5b5061072b611fb0565b005b34801561073957600080fd5b50610742611fc2565b60405161074f9190614072565b60405180910390f35b610772600480360381019061076d91906140f9565b611fec565b005b34801561078057600080fd5b5061078961229a565b604051610796919061400f565b60405180910390f35b3480156107ab57600080fd5b506107c660048036038101906107c191906143e9565b61232c565b005b3480156107d457600080fd5b506107dd612342565b6040516107ea9190614148565b60405180910390f35b3480156107ff57600080fd5b50610808612348565b6040516108159190614148565b60405180910390f35b34801561082a57600080fd5b506108456004803603810190610840919061455e565b61234e565b005b34801561085357600080fd5b5061085c6123b0565b604051610869919061400f565b60405180910390f35b34801561087e57600080fd5b5061089960048036038101906108949190613f52565b61243e565b6040516108a6919061400f565b60405180910390f35b3480156108bb57600080fd5b506108c46124ba565b6040516108d19190614148565b60405180910390f35b3480156108e657600080fd5b5061090160048036038101906108fc91906141d7565b6124c7565b60405161090e9190613f01565b60405180910390f35b34801561092357600080fd5b5061092c6124e7565b6040516109399190614148565b60405180910390f35b34801561094e57600080fd5b50610969600480360381019061096491906145e1565b6124ed565b6040516109769190613f01565b60405180910390f35b34801561098b57600080fd5b506109a660048036038101906109a191906141d7565b612581565b005b60006109b382612604565b9050919050565b600d54816109c66111e6565b6109d09190614650565b1115610a11576040517f08c379a0000000000000000000000000000000000000000000000000000000008152600401610a08906146d0565b60405180910390fd5b601760003373ffffffffffffffffffffffffffffffffffffffff1673ffffffffffffffffffffffffffffffffffffffff16815260200190815260200160002060009054906101000a900460ff16610a9d576040517f08c379a0000000000000000000000000000000000000000000000000000000008152600401610a949061473c565b60405180910390fd5b80600f54610aab919061475c565b3414610aec576040517f08c379a0000000000000000000000000000000000000000000000000000000008152600401610ae3906147ea565b60405180910390fd5b600381601660003373ffffffffffffffffffffffffffffffffffffffff1673ffffffffffffffffffffffffffffffffffffffff16815260200190815260200160002054610b399190614650565b1115610b7a576040517f08c379a0000000000000000000000000000000000000000000000000000000008152600401610b7190614856565b60405180910390fd5b60005b81811015610d93576000610b91600c61267e565b9050610b9d600c61268c565b601660003373ffffffffffffffffffffffffffffffffffffffff1673ffffffffffffffffffffffffffffffffffffffff1681526020019081526020016000206000815480929190610bed90614876565b9190505550610bfc33826126a2565b610c04613df0565b8181600001818152505033816060019073ffffffffffffffffffffffffffffffffffffffff16908173ffffffffffffffffffffffffffffffffffffffff168152505060008160800190151590811515815250508060156000848152602001908152602001600020600082015181600001556020820151816001015560408201518160020160006101000a81548173ffffffffffffffffffffffffffffffffffffffff021916908373ffffffffffffffffffffffffffffffffffffffff16021790555060608201518160030160006101000a81548173ffffffffffffffffffffffffffffffffffffffff021916908373ffffffffffffffffffffffffffffffffffffffff16021790555060808201518160030160146101000a81548160ff0219169083151502179055509050503373ffffffffffffffffffffffffffffffffffffffff167f7a5477f3d257e8974dc6fb5c008b442d975968577dfad5d1283aa0a488bfab0b83604051610d769190614148565b60405180910390a250508080610d8b90614876565b915050610b7d565b5050565b606060008054610da6906148ed565b80601f0160208091040260200160405190810160405280929190818152602001828054610dd2906148ed565b8015610e1f5780601f10610df457610100808354040283529160200191610e1f565b820191906000526020600020905b815481529060010190602001808311610e0257829003601f168201915b5050505050905090565b6000610e34826126c0565b6004600083815260200190815260200160002060009054906101000a900473ffffffffffffffffffffffffffffffffffffffff169050919050565b6000610e7a82611dad565b90508073ffffffffffffffffffffffffffffffffffffffff168373ffffffffffffffffffffffffffffffffffffffff1603610eea576040517f08c379a0000000000000000000000000000000000000000000000000000000008152600401610ee190614990565b60405180910390fd5b8073ffffffffffffffffffffffffffffffffffffffff16610f0961270b565b73ffffffffffffffffffffffffffffffffffffffff161480610f385750610f3781610f3261270b565b6124ed565b5b610f77576040517f08c379a0000000000000000000000000000000000000000000000000000000008152600401610f6e90614a22565b60405180910390fd5b610f818383612713565b505050565b601760003373ffffffffffffffffffffffffffffffffffffffff1673ffffffffffffffffffffffffffffffffffffffff16815260200190815260200160002060009054906101000a900460ff1615611013576040517f08c379a000000000000000000000000000000000000000000000000000000000815260040161100a90614a8e565b60405180910390fd5b60105460125410611059576040517f08c379a000000000000000000000000000000000000000000000000000000000815260040161105090614afa565b60405180910390fd5b6012600081548092919061106c90614876565b91905055506001601760003373ffffffffffffffffffffffffffffffffffffffff1673ffffffffffffffffffffffffffffffffffffffff16815260200190815260200160002060006101000a81548160ff021916908315150217905550565b6015600083815260200190815260200160002060030160149054906101000a900460ff1661112e576040517f08c379a000000000000000000000000000000000000000000000000000000000815260040161112590614b66565b60405180910390fd5b60006014805490509050600182611145919061475c565b601560008581526020019081526020016000206001018190555060005b818110156111e057836014828154811061117f5761117e614b86565b5b906000526020600020906004020160000154036111cd576001836111a3919061475c565b601482815481106111b7576111b6614b86565b5b9060005260206000209060040201600101819055505b80806111d890614876565b915050611162565b50505050565b6000600880549050905090565b6014818154811061120357600080fd5b90600052602060002090600402016000915090508060000154908060010154908060020160009054906101000a900473ffffffffffffffffffffffffffffffffffffffff16908060030160009054906101000a900473ffffffffffffffffffffffffffffffffffffffff16908060030160149054906101000a900460ff16905085565b60156020528060005260406000206000915090508060000154908060010154908060020160009054906101000a900473ffffffffffffffffffffffffffffffffffffffff16908060030160009054906101000a900473ffffffffffffffffffffffffffffffffffffffff16908060030160149054906101000a900460ff16905085565b60166020528060005260406000206000915090505481565b61133261132c61270b565b826127cc565b611371576040517f08c379a000000000000000000000000000000000000000000000000000000000815260040161136890614c27565b60405180910390fd5b61137c838383612861565b505050565b600d548161138d6111e6565b6113979190614650565b11156113d8576040517f08c379a00000000000000000000000000000000000000000000000000000000081526004016113cf906146d0565b60405180910390fd5b80600e546113e6919061475c565b3414611427576040517f08c379a000000000000000000000000000000000000000000000000000000000815260040161141e906147ea565b60405180910390fd5b600381601660003373ffffffffffffffffffffffffffffffffffffffff1673ffffffffffffffffffffffffffffffffffffffff168152602001908152602001600020546114749190614650565b11156114b5576040517f08c379a00000000000000000000000000000000000000000000000000000000081526004016114ac90614856565b60405180910390fd5b60005b818110156116ce5760006114cc600c61267e565b90506114d8600c61268c565b601660003373ffffffffffffffffffffffffffffffffffffffff1673ffffffffffffffffffffffffffffffffffffffff168152602001908152602001600020600081548092919061152890614876565b919050555061153733826126a2565b61153f613df0565b8181600001818152505033816060019073ffffffffffffffffffffffffffffffffffffffff16908173ffffffffffffffffffffffffffffffffffffffff168152505060008160800190151590811515815250508060156000848152602001908152602001600020600082015181600001556020820151816001015560408201518160020160006101000a81548173ffffffffffffffffffffffffffffffffffffffff021916908373ffffffffffffffffffffffffffffffffffffffff16021790555060608201518160030160006101000a81548173ffffffffffffffffffffffffffffffffffffffff021916908373ffffffffffffffffffffffffffffffffffffffff16021790555060808201518160030160146101000a81548160ff0219169083151502179055509050503373ffffffffffffffffffffffffffffffffffffffff167f7a5477f3d257e8974dc6fb5c008b442d975968577dfad5d1283aa0a488bfab0b836040516116b19190614148565b60405180910390a2505080806116c690614876565b9150506114b8565b5050565b60006116dd83611edf565b821061171e576040517f08c379a000000000000000000000000000000000000000000000000000000000815260040161171590614cb9565b60405180910390fd5b600660008473ffffffffffffffffffffffffffffffffffffffff1673ffffffffffffffffffffffffffffffffffffffff168152602001908152602001600020600083815260200190815260200160002054905092915050565b600d5481565b611785612b5a565b61178d612bd8565b565b6117aa8383836040518060200160405280600081525061234e565b505050565b60006117b96111e6565b82106117fa576040517f08c379a00000000000000000000000000000000000000000000000000000000081526004016117f190614d4b565b60405180910390fd5b6008828154811061180e5761180d614b86565b5b90600052602060002001549050919050565b6014818154811061183457611833614b86565b5b906000526020600020906004020160030160149054906101000a900460ff16611892576040517f08c379a0000000000000000000000000000000000000000000000000000000008152600401611889906146d0565b60405180910390fd5b601481815481106118a6576118a5614b86565b5b90600052602060002090600402016001015434146118f9576040517f08c379a00000000000000000000000000000000000000000000000000000000081526004016118f090614db7565b60405180910390fd5b60006014828154811061190f5761190e614b86565b5b906000526020600020906004020160000154905060006014838154811061193957611938614b86565b5b906000526020600020906004020160030160009054906101000a900473ffffffffffffffffffffffffffffffffffffffff16905060006015600084815260200190815260200160002060030160146101000a81548160ff0219169083151502179055506000601484815481106119b2576119b1614b86565b5b906000526020600020906004020160030160146101000a81548160ff021916908315150217905550336015600084815260200190815260200160002060030160006101000a81548173ffffffffffffffffffffffffffffffffffffffff021916908373ffffffffffffffffffffffffffffffffffffffff1602179055503360148481548110611a4457611a43614b86565b5b906000526020600020906004020160030160006101000a81548173ffffffffffffffffffffffffffffffffffffffff021916908373ffffffffffffffffffffffffffffffffffffffff1602179055503073ffffffffffffffffffffffffffffffffffffffff166342842e0e8233856040518463ffffffff1660e01b8152600401611ad093929190614dd7565b600060405180830381600087803b158015611aea57600080fd5b505af1158015611afe573d6000803e3d6000fd5b505050508073ffffffffffffffffffffffffffffffffffffffff166108fc349081150290604051600060405180830381858888f19350505050158015611b48573d6000803e3d6000fd5b508073ffffffffffffffffffffffffffffffffffffffff16827fdc0971a41bd3cc3dec88e610438b1a9f0752975bbd80f195baf7b766c0aec03e60405160405180910390a3505050565b6000600b60009054906101000a900460ff16905090565b60606000611bb7600c61267e565b90506000600367ffffffffffffffff811115611bd657611bd5614433565b5b604051908082528060200260200182016040528015611c0f57816020015b611bfc613df0565b815260200190600190039081611bf45790505b50905060005b828111611da45760006015600083815260200190815260200160002090503373ffffffffffffffffffffffffffffffffffffffff168160030160009054906101000a900473ffffffffffffffffffffffffffffffffffffffff1673ffffffffffffffffffffffffffffffffffffffff1603611d9057806040518060a001604052908160008201548152602001600182015481526020016002820160009054906101000a900473ffffffffffffffffffffffffffffffffffffffff1673ffffffffffffffffffffffffffffffffffffffff1673ffffffffffffffffffffffffffffffffffffffff1681526020016003820160009054906101000a900473ffffffffffffffffffffffffffffffffffffffff1673ffffffffffffffffffffffffffffffffffffffff1673ffffffffffffffffffffffffffffffffffffffff1681526020016003820160149054906101000a900460ff161515151581525050838381518110611d8457611d83614b86565b5b60200260200101819052505b508080611d9c90614876565b915050611c15565b50809250505090565b600080611db983612c3b565b9050600073ffffffffffffffffffffffffffffffffffffffff168173ffffffffffffffffffffffffffffffffffffffff1603611e2a576040517f08c379a0000000000000000000000000000000000000000000000000000000008152600401611e2190614e5a565b60405180910390fd5b80915050919050565b611e3b612b5a565b60004790508173ffffffffffffffffffffffffffffffffffffffff166108fc829081150290604051600060405180830381858888f19350505050158015611e86573d6000803e3d6000fd5b508173ffffffffffffffffffffffffffffffffffffffff167f884edad9ce6fa2440d8a54cc123490eb96d2768479d49ff9c7366125a942436482604051611ecd9190614148565b60405180910390a25050565b600e5481565b60008073ffffffffffffffffffffffffffffffffffffffff168273ffffffffffffffffffffffffffffffffffffffff1603611f4f576040517f08c379a0000000000000000000000000000000000000000000000000000000008152600401611f4690614eec565b60405180910390fd5b600360008373ffffffffffffffffffffffffffffffffffffffff1673ffffffffffffffffffffffffffffffffffffffff168152602001908152602001600020549050919050565b611f9e612b5a565b611fa86000612c78565b565b60115481565b611fb8612b5a565b611fc0612d3e565b565b6000600b60019054906101000a900473ffffffffffffffffffffffffffffffffffffffff16905090565b6015600083815260200190815260200160002060030160149054906101000a900460ff1615612050576040517f08c379a000000000000000000000000000000000000000000000000000000000815260040161204790614f58565b60405180910390fd5b6011543414612094576040517f08c379a000000000000000000000000000000000000000000000000000000000815260040161208b90614fc4565b60405180910390fd5b60006015600084815260200190815260200160002090506001826120b8919061475c565b8160010181905550308160020160006101000a81548173ffffffffffffffffffffffffffffffffffffffff021916908373ffffffffffffffffffffffffffffffffffffffff16021790555060018160030160146101000a81548160ff021916908315150217905550601481908060018154018082558091505060019003906000526020600020906004020160009091909190915060008201548160000155600182015481600101556002820160009054906101000a900473ffffffffffffffffffffffffffffffffffffffff168160020160006101000a81548173ffffffffffffffffffffffffffffffffffffffff021916908373ffffffffffffffffffffffffffffffffffffffff1602179055506003820160009054906101000a900473ffffffffffffffffffffffffffffffffffffffff168160030160006101000a81548173ffffffffffffffffffffffffffffffffffffffff021916908373ffffffffffffffffffffffffffffffffffffffff1602179055506003820160149054906101000a900460ff168160030160146101000a81548160ff02191690831515021790555050506122673084610e6f565b81837f1ea45e30b31292f9d7c5d37d275b2feca555f13f47dce0fdea2f47e8852ecd7860405160405180910390a3505050565b6060600180546122a9906148ed565b80601f01602080910402602001604051908101604052809291908181526020018280546122d5906148ed565b80156123225780601f106122f757610100808354040283529160200191612322565b820191906000526020600020905b81548152906001019060200180831161230557829003601f168201915b5050505050905090565b61233e61233761270b565b8383612da1565b5050565b600f5481565b60105481565b61235f61235961270b565b836127cc565b61239e576040517f08c379a000000000000000000000000000000000000000000000000000000000815260040161239590614c27565b60405180910390fd5b6123aa84848484612f0d565b50505050565b601380546123bd906148ed565b80601f01602080910402602001604051908101604052809291908181526020018280546123e9906148ed565b80156124365780601f1061240b57610100808354040283529160200191612436565b820191906000526020600020905b81548152906001019060200180831161241957829003601f168201915b505050505081565b6060612449826126c0565b6000612453612f69565b90506000836113886124659190614650565b90506000825111156124a7578161247b82612f89565b601360405160200161248f939291906150b8565b604051602081830303815290604052925050506124b5565b6124b084613057565b925050505b919050565b6000601480549050905090565b60176020528060005260406000206000915054906101000a900460ff1681565b60125481565b6000600560008473ffffffffffffffffffffffffffffffffffffffff1673ffffffffffffffffffffffffffffffffffffffff16815260200190815260200160002060008373ffffffffffffffffffffffffffffffffffffffff1673ffffffffffffffffffffffffffffffffffffffff16815260200190815260200160002060009054906101000a900460ff16905092915050565b612589612b5a565b600073ffffffffffffffffffffffffffffffffffffffff168173ffffffffffffffffffffffffffffffffffffffff16036125f8576040517f08c379a00000000000000000000000000000000000000000000000000000000081526004016125ef9061515b565b60405180910390fd5b61260181612c78565b50565b60007f780e9d63000000000000000000000000000000000000000000000000000000007bffffffffffffffffffffffffffffffffffffffffffffffffffffffff1916827bffffffffffffffffffffffffffffffffffffffffffffffffffffffff19161480612677575061267682613169565b5b9050919050565b600081600001549050919050565b6001816000016000828254019250508190555050565b6126bc82826040518060200160405280600081525061324b565b5050565b6126c9816132a6565b612708576040517f08c379a00000000000000000000000000000000000000000000000000000000081526004016126ff90614e5a565b60405180910390fd5b50565b600033905090565b816004600083815260200190815260200160002060006101000a81548173ffffffffffffffffffffffffffffffffffffffff021916908373ffffffffffffffffffffffffffffffffffffffff160217905550808273ffffffffffffffffffffffffffffffffffffffff1661278683611dad565b73ffffffffffffffffffffffffffffffffffffffff167f8c5be1e5ebec7d5bd14f71427d1e84f3dd0314c0f7b2291e5b200ac8c7c3b92560405160405180910390a45050565b6000806127d883611dad565b90508073ffffffffffffffffffffffffffffffffffffffff168473ffffffffffffffffffffffffffffffffffffffff16148061281a575061281981856124ed565b5b8061285857508373ffffffffffffffffffffffffffffffffffffffff1661284084610e29565b73ffffffffffffffffffffffffffffffffffffffff16145b91505092915050565b8273ffffffffffffffffffffffffffffffffffffffff1661288182611dad565b73ffffffffffffffffffffffffffffffffffffffff16146128d7576040517f08c379a00000000000000000000000000000000000000000000000000000000081526004016128ce906151ed565b60405180910390fd5b600073ffffffffffffffffffffffffffffffffffffffff168273ffffffffffffffffffffffffffffffffffffffff1603612946576040517f08c379a000000000000000000000000000000000000000000000000000000000815260040161293d9061527f565b60405180910390fd5b61295383838360016132e7565b8273ffffffffffffffffffffffffffffffffffffffff1661297382611dad565b73ffffffffffffffffffffffffffffffffffffffff16146129c9576040517f08c379a00000000000000000000000000000000000000000000000000000000081526004016129c0906151ed565b60405180910390fd5b6004600082815260200190815260200160002060006101000a81549073ffffffffffffffffffffffffffffffffffffffff02191690556001600360008573ffffffffffffffffffffffffffffffffffffffff1673ffffffffffffffffffffffffffffffffffffffff168152602001908152602001600020600082825403925050819055506001600360008473ffffffffffffffffffffffffffffffffffffffff1673ffffffffffffffffffffffffffffffffffffffff16815260200190815260200160002060008282540192505081905550816002600083815260200190815260200160002060006101000a81548173ffffffffffffffffffffffffffffffffffffffff021916908373ffffffffffffffffffffffffffffffffffffffff160217905550808273ffffffffffffffffffffffffffffffffffffffff168473ffffffffffffffffffffffffffffffffffffffff167fddf252ad1be2c89b69c2b068fc378daa952ba7f163c4a11628f55a4df523b3ef60405160405180910390a4612b558383836001613301565b505050565b612b6261270b565b73ffffffffffffffffffffffffffffffffffffffff16612b80611fc2565b73ffffffffffffffffffffffffffffffffffffffff1614612bd6576040517f08c379a0000000000000000000000000000000000000000000000000000000008152600401612bcd906152eb565b60405180910390fd5b565b612be0613307565b6000600b60006101000a81548160ff0219169083151502179055507f5db9ee0a495bf2e6ff9c91a7834c1ba4fdd244a5e8aa4e537bd38aeae4b073aa612c2461270b565b604051612c319190614072565b60405180910390a1565b60006002600083815260200190815260200160002060009054906101000a900473ffffffffffffffffffffffffffffffffffffffff169050919050565b6000600b60019054906101000a900473ffffffffffffffffffffffffffffffffffffffff16905081600b60016101000a81548173ffffffffffffffffffffffffffffffffffffffff021916908373ffffffffffffffffffffffffffffffffffffffff1602179055508173ffffffffffffffffffffffffffffffffffffffff168173ffffffffffffffffffffffffffffffffffffffff167f8be0079c531659141344cd1fd0a4f28419497f9722a3daafe3b4186f6b6457e060405160405180910390a35050565b612d46613350565b6001600b60006101000a81548160ff0219169083151502179055507f62e78cea01bee320cd4e420270b5ea74000d11b0c9f74754ebdbfc544b05a258612d8a61270b565b604051612d979190614072565b60405180910390a1565b8173ffffffffffffffffffffffffffffffffffffffff168373ffffffffffffffffffffffffffffffffffffffff1603612e0f576040517f08c379a0000000000000000000000000000000000000000000000000000000008152600401612e0690615357565b60405180910390fd5b80600560008573ffffffffffffffffffffffffffffffffffffffff1673ffffffffffffffffffffffffffffffffffffffff16815260200190815260200160002060008473ffffffffffffffffffffffffffffffffffffffff1673ffffffffffffffffffffffffffffffffffffffff16815260200190815260200160002060006101000a81548160ff0219169083151502179055508173ffffffffffffffffffffffffffffffffffffffff168373ffffffffffffffffffffffffffffffffffffffff167f17307eab39ab6107e8899845ad3d59bd9653f200f220920489ca2b5937696c3183604051612f009190613f01565b60405180910390a3505050565b612f18848484612861565b612f248484848461339a565b612f63576040517f08c379a0000000000000000000000000000000000000000000000000000000008152600401612f5a906153e9565b60405180910390fd5b50505050565b60606040518060800160405280604481526020016157e560449139905090565b606060006001612f9884613521565b01905060008167ffffffffffffffff811115612fb757612fb6614433565b5b6040519080825280601f01601f191660200182016040528015612fe95781602001600182028036833780820191505090505b509050600082602001820190505b60011561304c578080600190039150507f3031323334353637383961626364656600000000000000000000000000000000600a86061a8153600a85816130405761303f615409565b5b04945060008503612ff7575b819350505050919050565b6060613062826126c0565b6000600a60008481526020019081526020016000208054613082906148ed565b80601f01602080910402602001604051908101604052809291908181526020018280546130ae906148ed565b80156130fb5780601f106130d0576101008083540402835291602001916130fb565b820191906000526020600020905b8154815290600101906020018083116130de57829003601f168201915b50505050509050600061310c612f69565b90506000815103613121578192505050613164565b60008251111561315657808260405160200161313e929190615438565b60405160208183030381529060405292505050613164565b61315f84613674565b925050505b919050565b60007f80ac58cd000000000000000000000000000000000000000000000000000000007bffffffffffffffffffffffffffffffffffffffffffffffffffffffff1916827bffffffffffffffffffffffffffffffffffffffffffffffffffffffff1916148061323457507f5b5e139f000000000000000000000000000000000000000000000000000000007bffffffffffffffffffffffffffffffffffffffffffffffffffffffff1916827bffffffffffffffffffffffffffffffffffffffffffffffffffffffff1916145b806132445750613243826136dc565b5b9050919050565b6132558383613746565b613262600084848461339a565b6132a1576040517f08c379a0000000000000000000000000000000000000000000000000000000008152600401613298906153e9565b60405180910390fd5b505050565b60008073ffffffffffffffffffffffffffffffffffffffff166132c883612c3b565b73ffffffffffffffffffffffffffffffffffffffff1614159050919050565b6132ef613350565b6132fb84848484613963565b50505050565b50505050565b61330f611b92565b61334e576040517f08c379a0000000000000000000000000000000000000000000000000000000008152600401613345906154a8565b60405180910390fd5b565b613358611b92565b15613398576040517f08c379a000000000000000000000000000000000000000000000000000000000815260040161338f90615514565b60405180910390fd5b565b60006133bb8473ffffffffffffffffffffffffffffffffffffffff16613ac1565b15613514578373ffffffffffffffffffffffffffffffffffffffff1663150b7a026133e461270b565b8786866040518563ffffffff1660e01b81526004016134069493929190615589565b6020604051808303816000875af192505050801561344257506040513d601f19601f8201168201806040525081019061343f91906155ea565b60015b6134c4573d8060008114613472576040519150601f19603f3d011682016040523d82523d6000602084013e613477565b606091505b5060008151036134bc576040517f08c379a00000000000000000000000000000000000000000000000000000000081526004016134b3906153e9565b60405180910390fd5b805181602001fd5b63150b7a0260e01b7bffffffffffffffffffffffffffffffffffffffffffffffffffffffff1916817bffffffffffffffffffffffffffffffffffffffffffffffffffffffff191614915050613519565b600190505b949350505050565b600080600090507a184f03e93ff9f4daa797ed6e38ed64bf6a1f010000000000000000831061357f577a184f03e93ff9f4daa797ed6e38ed64bf6a1f010000000000000000838161357557613574615409565b5b0492506040810190505b6d04ee2d6d415b85acef810000000083106135bc576d04ee2d6d415b85acef810000000083816135b2576135b1615409565b5b0492506020810190505b662386f26fc1000083106135eb57662386f26fc1000083816135e1576135e0615409565b5b0492506010810190505b6305f5e1008310613614576305f5e100838161360a57613609615409565b5b0492506008810190505b612710831061363957612710838161362f5761362e615409565b5b0492506004810190505b6064831061365c576064838161365257613651615409565b5b0492506002810190505b600a831061366b576001810190505b80915050919050565b606061367f826126c0565b6000613689612f69565b905060008151116136a957604051806020016040528060008152506136d4565b806136b384612f89565b6040516020016136c4929190615438565b6040516020818303038152906040525b915050919050565b60007f01ffc9a7000000000000000000000000000000000000000000000000000000007bffffffffffffffffffffffffffffffffffffffffffffffffffffffff1916827bffffffffffffffffffffffffffffffffffffffffffffffffffffffff1916149050919050565b600073ffffffffffffffffffffffffffffffffffffffff168273ffffffffffffffffffffffffffffffffffffffff16036137b5576040517f08c379a00000000000000000000000000000000000000000000000000000000081526004016137ac90615663565b60405180910390fd5b6137be816132a6565b156137fe576040517f08c379a00000000000000000000000000000000000000000000000000000000081526004016137f5906156cf565b60405180910390fd5b61380c6000838360016132e7565b613815816132a6565b15613855576040517f08c379a000000000000000000000000000000000000000000000000000000000815260040161384c906156cf565b60405180910390fd5b6001600360008473ffffffffffffffffffffffffffffffffffffffff1673ffffffffffffffffffffffffffffffffffffffff16815260200190815260200160002060008282540192505081905550816002600083815260200190815260200160002060006101000a81548173ffffffffffffffffffffffffffffffffffffffff021916908373ffffffffffffffffffffffffffffffffffffffff160217905550808273ffffffffffffffffffffffffffffffffffffffff16600073ffffffffffffffffffffffffffffffffffffffff167fddf252ad1be2c89b69c2b068fc378daa952ba7f163c4a11628f55a4df523b3ef60405160405180910390a461395f600083836001613301565b5050565b61396f84848484613ae4565b60018111156139b3576040517f08c379a00000000000000000000000000000000000000000000000000000000081526004016139aa90615761565b60405180910390fd5b6000829050600073ffffffffffffffffffffffffffffffffffffffff168573ffffffffffffffffffffffffffffffffffffffff16036139fa576139f581613aea565b613a39565b8373ffffffffffffffffffffffffffffffffffffffff168573ffffffffffffffffffffffffffffffffffffffff1614613a3857613a378582613b33565b5b5b600073ffffffffffffffffffffffffffffffffffffffff168473ffffffffffffffffffffffffffffffffffffffff1603613a7b57613a7681613ca0565b613aba565b8473ffffffffffffffffffffffffffffffffffffffff168473ffffffffffffffffffffffffffffffffffffffff1614613ab957613ab88482613d71565b5b5b5050505050565b6000808273ffffffffffffffffffffffffffffffffffffffff163b119050919050565b50505050565b6008805490506009600083815260200190815260200160002081905550600881908060018154018082558091505060019003906000526020600020016000909190919091505550565b60006001613b4084611edf565b613b4a9190615781565b9050600060076000848152602001908152602001600020549050818114613c2f576000600660008673ffffffffffffffffffffffffffffffffffffffff1673ffffffffffffffffffffffffffffffffffffffff168152602001908152602001600020600084815260200190815260200160002054905080600660008773ffffffffffffffffffffffffffffffffffffffff1673ffffffffffffffffffffffffffffffffffffffff168152602001908152602001600020600084815260200190815260200160002081905550816007600083815260200190815260200160002081905550505b6007600084815260200190815260200160002060009055600660008573ffffffffffffffffffffffffffffffffffffffff1673ffffffffffffffffffffffffffffffffffffffff16815260200190815260200160002060008381526020019081526020016000206000905550505050565b60006001600880549050613cb49190615781565b9050600060096000848152602001908152602001600020549050600060088381548110613ce457613ce3614b86565b5b906000526020600020015490508060088381548110613d0657613d05614b86565b5b906000526020600020018190555081600960008381526020019081526020016000208190555060096000858152602001908152602001600020600090556008805480613d5557613d546157b5565b5b6001900381819060005260206000200160009055905550505050565b6000613d7c83611edf565b905081600660008573ffffffffffffffffffffffffffffffffffffffff1673ffffffffffffffffffffffffffffffffffffffff168152602001908152602001600020600083815260200190815260200160002081905550806007600084815260200190815260200160002081905550505050565b6040518060a001604052806000815260200160008152602001600073ffffffffffffffffffffffffffffffffffffffff168152602001600073ffffffffffffffffffffffffffffffffffffffff1681526020016000151581525090565b6000604051905090565b600080fd5b600080fd5b60007fffffffff0000000000000000000000000000000000000000000000000000000082169050919050565b613e9681613e61565b8114613ea157600080fd5b50565b600081359050613eb381613e8d565b92915050565b600060208284031215613ecf57613ece613e57565b5b6000613edd84828501613ea4565b91505092915050565b60008115159050919050565b613efb81613ee6565b82525050565b6000602082019050613f166000830184613ef2565b92915050565b6000819050919050565b613f2f81613f1c565b8114613f3a57600080fd5b50565b600081359050613f4c81613f26565b92915050565b600060208284031215613f6857613f67613e57565b5b6000613f7684828501613f3d565b91505092915050565b600081519050919050565b600082825260208201905092915050565b60005b83811015613fb9578082015181840152602081019050613f9e565b60008484015250505050565b6000601f19601f8301169050919050565b6000613fe182613f7f565b613feb8185613f8a565b9350613ffb818560208601613f9b565b61400481613fc5565b840191505092915050565b600060208201905081810360008301526140298184613fd6565b905092915050565b600073ffffffffffffffffffffffffffffffffffffffff82169050919050565b600061405c82614031565b9050919050565b61406c81614051565b82525050565b60006020820190506140876000830184614063565b92915050565b61409681614051565b81146140a157600080fd5b50565b6000813590506140b38161408d565b92915050565b600080604083850312156140d0576140cf613e57565b5b60006140de858286016140a4565b92505060206140ef85828601613f3d565b9150509250929050565b600080604083850312156141105761410f613e57565b5b600061411e85828601613f3d565b925050602061412f85828601613f3d565b9150509250929050565b61414281613f1c565b82525050565b600060208201905061415d6000830184614139565b92915050565b600061416e82614031565b9050919050565b61417e81614163565b82525050565b600060a0820190506141996000830188614139565b6141a66020830187614139565b6141b36040830186614175565b6141c06060830185614175565b6141cd6080830184613ef2565b9695505050505050565b6000602082840312156141ed576141ec613e57565b5b60006141fb848285016140a4565b91505092915050565b60008060006060848603121561421d5761421c613e57565b5b600061422b868287016140a4565b935050602061423c868287016140a4565b925050604061424d86828701613f3d565b9150509250925092565b600081519050919050565b600082825260208201905092915050565b6000819050602082019050919050565b61428c81613f1c565b82525050565b61429b81614163565b82525050565b6142aa81613ee6565b82525050565b60a0820160008201516142c66000850182614283565b5060208201516142d96020850182614283565b5060408201516142ec6040850182614292565b5060608201516142ff6060850182614292565b50608082015161431260808501826142a1565b50505050565b600061432483836142b0565b60a08301905092915050565b6000602082019050919050565b600061434882614257565b6143528185614262565b935061435d83614273565b8060005b8381101561438e5781516143758882614318565b975061438083614330565b925050600181019050614361565b5085935050505092915050565b600060208201905081810360008301526143b5818461433d565b905092915050565b6143c681613ee6565b81146143d157600080fd5b50565b6000813590506143e3816143bd565b92915050565b60008060408385031215614400576143ff613e57565b5b600061440e858286016140a4565b925050602061441f858286016143d4565b9150509250929050565b600080fd5b600080fd5b7f4e487b7100000000000000000000000000000000000000000000000000000000600052604160045260246000fd5b61446b82613fc5565b810181811067ffffffffffffffff8211171561448a57614489614433565b5b80604052505050565b600061449d613e4d565b90506144a98282614462565b919050565b600067ffffffffffffffff8211156144c9576144c8614433565b5b6144d282613fc5565b9050602081019050919050565b82818337600083830152505050565b60006145016144fc846144ae565b614493565b90508281526020810184848401111561451d5761451c61442e565b5b6145288482856144df565b509392505050565b600082601f83011261454557614544614429565b5b81356145558482602086016144ee565b91505092915050565b6000806000806080858703121561457857614577613e57565b5b6000614586878288016140a4565b9450506020614597878288016140a4565b93505060406145a887828801613f3d565b925050606085013567ffffffffffffffff8111156145c9576145c8613e5c565b5b6145d587828801614530565b91505092959194509250565b600080604083850312156145f8576145f7613e57565b5b6000614606858286016140a4565b9250506020614617858286016140a4565b9150509250929050565b7f4e487b7100000000000000000000000000000000000000000000000000000000600052601160045260246000fd5b600061465b82613f1c565b915061466683613f1c565b925082820190508082111561467e5761467d614621565b5b92915050565b7f536f6c64206f7574210000000000000000000000000000000000000000000000600082015250565b60006146ba600983613f8a565b91506146c582614684565b602082019050919050565b600060208201905081810360008301526146e9816146ad565b9050919050565b7f596f7520617265206e6f7420696e207468652077686974656c69737421000000600082015250565b6000614726601d83613f8a565b9150614731826146f0565b602082019050919050565b6000602082019050818103600083015261475581614719565b9050919050565b600061476782613f1c565b915061477283613f1c565b925082820261478081613f1c565b9150828204841483151761479757614796614621565b5b5092915050565b7f506c65617365207061792074686520657861637420616d6f756e742100000000600082015250565b60006147d4601c83613f8a565b91506147df8261479e565b602082019050919050565b60006020820190508181036000830152614803816147c7565b9050919050565b7f4d6178207065722077616c6c6574207265616368656421000000000000000000600082015250565b6000614840601783613f8a565b915061484b8261480a565b602082019050919050565b6000602082019050818103600083015261486f81614833565b9050919050565b600061488182613f1c565b91507fffffffffffffffffffffffffffffffffffffffffffffffffffffffffffffffff82036148b3576148b2614621565b5b600182019050919050565b7f4e487b7100000000000000000000000000000000000000000000000000000000600052602260045260246000fd5b6000600282049050600182168061490557607f821691505b602082108103614918576149176148be565b5b50919050565b7f4552433732313a20617070726f76616c20746f2063757272656e74206f776e6560008201527f7200000000000000000000000000000000000000000000000000000000000000602082015250565b600061497a602183613f8a565b91506149858261491e565b604082019050919050565b600060208201905081810360008301526149a98161496d565b9050919050565b7f4552433732313a20617070726f76652063616c6c6572206973206e6f7420746f60008201527f6b656e206f776e6572206f7220617070726f76656420666f7220616c6c000000602082015250565b6000614a0c603d83613f8a565b9150614a17826149b0565b604082019050919050565b60006020820190508181036000830152614a3b816149ff565b9050919050565b7f416c726561647920616464656400000000000000000000000000000000000000600082015250565b6000614a78600d83613f8a565b9150614a8382614a42565b602082019050919050565b60006020820190508181036000830152614aa781614a6b565b9050919050565b7f4d6178206f757400000000000000000000000000000000000000000000000000600082015250565b6000614ae4600783613f8a565b9150614aef82614aae565b602082019050919050565b60006020820190508181036000830152614b1381614ad7565b9050919050565b7f4e6f74204c697374656400000000000000000000000000000000000000000000600082015250565b6000614b50600a83613f8a565b9150614b5b82614b1a565b602082019050919050565b60006020820190508181036000830152614b7f81614b43565b9050919050565b7f4e487b7100000000000000000000000000000000000000000000000000000000600052603260045260246000fd5b7f4552433732313a2063616c6c6572206973206e6f7420746f6b656e206f776e6560008201527f72206f7220617070726f76656400000000000000000000000000000000000000602082015250565b6000614c11602d83613f8a565b9150614c1c82614bb5565b604082019050919050565b60006020820190508181036000830152614c4081614c04565b9050919050565b7f455243373231456e756d657261626c653a206f776e657220696e646578206f7560008201527f74206f6620626f756e6473000000000000000000000000000000000000000000602082015250565b6000614ca3602b83613f8a565b9150614cae82614c47565b604082019050919050565b60006020820190508181036000830152614cd281614c96565b9050919050565b7f455243373231456e756d657261626c653a20676c6f62616c20696e646578206f60008201527f7574206f6620626f756e64730000000000000000000000000000000000000000602082015250565b6000614d35602c83613f8a565b9150614d4082614cd9565b604082019050919050565b60006020820190508181036000830152614d6481614d28565b9050919050565b7f5061792074686520657861637420616d6f756e74210000000000000000000000600082015250565b6000614da1601583613f8a565b9150614dac82614d6b565b602082019050919050565b60006020820190508181036000830152614dd081614d94565b9050919050565b6000606082019050614dec6000830186614063565b614df96020830185614063565b614e066040830184614139565b949350505050565b7f4552433732313a20696e76616c696420746f6b656e2049440000000000000000600082015250565b6000614e44601883613f8a565b9150614e4f82614e0e565b602082019050919050565b60006020820190508181036000830152614e7381614e37565b9050919050565b7f4552433732313a2061646472657373207a65726f206973206e6f74206120766160008201527f6c6964206f776e65720000000000000000000000000000000000000000000000602082015250565b6000614ed6602983613f8a565b9150614ee182614e7a565b604082019050919050565b60006020820190508181036000830152614f0581614ec9565b9050919050565b7f416c7265616479206c6973746564210000000000000000000000000000000000600082015250565b6000614f42600f83613f8a565b9150614f4d82614f0c565b602082019050919050565b60006020820190508181036000830152614f7181614f35565b9050919050565b7f5061792074686520657861637420707269636521000000000000000000000000600082015250565b6000614fae601483613f8a565b9150614fb982614f78565b602082019050919050565b60006020820190508181036000830152614fdd81614fa1565b9050919050565b600081905092915050565b6000614ffa82613f7f565b6150048185614fe4565b9350615014818560208601613f9b565b80840191505092915050565b60008190508160005260206000209050919050565b60008154615042816148ed565b61504c8186614fe4565b94506001821660008114615067576001811461507c576150af565b60ff19831686528115158202860193506150af565b61508585615020565b60005b838110156150a757815481890152600182019150602081019050615088565b838801955050505b50505092915050565b60006150c48286614fef565b91506150d08285614fef565b91506150dc8284615035565b9150819050949350505050565b7f4f776e61626c653a206e6577206f776e657220697320746865207a65726f206160008201527f6464726573730000000000000000000000000000000000000000000000000000602082015250565b6000615145602683613f8a565b9150615150826150e9565b604082019050919050565b6000602082019050818103600083015261517481615138565b9050919050565b7f4552433732313a207472616e736665722066726f6d20696e636f72726563742060008201527f6f776e6572000000000000000000000000000000000000000000000000000000602082015250565b60006151d7602583613f8a565b91506151e28261517b565b604082019050919050565b60006020820190508181036000830152615206816151ca565b9050919050565b7f4552433732313a207472616e7366657220746f20746865207a65726f2061646460008201527f7265737300000000000000000000000000000000000000000000000000000000602082015250565b6000615269602483613f8a565b91506152748261520d565b604082019050919050565b600060208201905081810360008301526152988161525c565b9050919050565b7f4f776e61626c653a2063616c6c6572206973206e6f7420746865206f776e6572600082015250565b60006152d5602083613f8a565b91506152e08261529f565b602082019050919050565b60006020820190508181036000830152615304816152c8565b9050919050565b7f4552433732313a20617070726f766520746f2063616c6c657200000000000000600082015250565b6000615341601983613f8a565b915061534c8261530b565b602082019050919050565b6000602082019050818103600083015261537081615334565b9050919050565b7f4552433732313a207472616e7366657220746f206e6f6e20455243373231526560008201527f63656976657220696d706c656d656e7465720000000000000000000000000000602082015250565b60006153d3603283613f8a565b91506153de82615377565b604082019050919050565b60006020820190508181036000830152615402816153c6565b9050919050565b7f4e487b7100000000000000000000000000000000000000000000000000000000600052601260045260246000fd5b60006154448285614fef565b91506154508284614fef565b91508190509392505050565b7f5061757361626c653a206e6f7420706175736564000000000000000000000000600082015250565b6000615492601483613f8a565b915061549d8261545c565b602082019050919050565b600060208201905081810360008301526154c181615485565b9050919050565b7f5061757361626c653a2070617573656400000000000000000000000000000000600082015250565b60006154fe601083613f8a565b9150615509826154c8565b602082019050919050565b6000602082019050818103600083015261552d816154f1565b9050919050565b600081519050919050565b600082825260208201905092915050565b600061555b82615534565b615565818561553f565b9350615575818560208601613f9b565b61557e81613fc5565b840191505092915050565b600060808201905061559e6000830187614063565b6155ab6020830186614063565b6155b86040830185614139565b81810360608301526155ca8184615550565b905095945050505050565b6000815190506155e481613e8d565b92915050565b600060208284031215615600576155ff613e57565b5b600061560e848285016155d5565b91505092915050565b7f4552433732313a206d696e7420746f20746865207a65726f2061646472657373600082015250565b600061564d602083613f8a565b915061565882615617565b602082019050919050565b6000602082019050818103600083015261567c81615640565b9050919050565b7f4552433732313a20746f6b656e20616c7265616479206d696e74656400000000600082015250565b60006156b9601c83613f8a565b91506156c482615683565b602082019050919050565b600060208201905081810360008301526156e8816156ac565b9050919050565b7f455243373231456e756d657261626c653a20636f6e736563757469766520747260008201527f616e7366657273206e6f7420737570706f727465640000000000000000000000602082015250565b600061574b603583613f8a565b9150615756826156ef565b604082019050919050565b6000602082019050818103600083015261577a8161573e565b9050919050565b600061578c82613f1c565b915061579783613f1c565b92508282039050818111156157af576157ae614621565b5b92915050565b7f4e487b7100000000000000000000000000000000000000000000000000000000600052603160045260246000fdfe68747470733a2f2f697066732e696f2f697066732f516d58587a5253775350733444484c53375244505279473147696e6a4756467632665335546458336657333346582fa26469706673582212208965362b6a6300835746e385c725706795425d29cc97d16e50cf5b6d57795f1864736f6c63430008120033",
  "linkReferences": {},
  "deployedLinkReferences": {}
}